{
  "contractName": "WoomExchange",
  "abi": [
    {
      "anonymous": false,
      "inputs": [
        {
          "indexed": false,
          "internalType": "bytes32",
          "name": "id",
          "type": "bytes32"
        }
      ],
      "name": "BidAccepted",
      "type": "event"
    },
    {
      "anonymous": false,
      "inputs": [
        {
          "indexed": false,
          "internalType": "bytes32",
          "name": "id",
          "type": "bytes32"
        }
      ],
      "name": "BidCancelled",
      "type": "event"
    },
    {
      "anonymous": false,
      "inputs": [
        {
          "indexed": false,
          "internalType": "bytes32",
          "name": "id",
          "type": "bytes32"
        },
        {
          "indexed": true,
          "internalType": "address",
          "name": "collection",
          "type": "address"
        },
        {
          "indexed": true,
          "internalType": "uint256",
          "name": "assetId",
          "type": "uint256"
        },
        {
          "indexed": true,
          "internalType": "address",
          "name": "bidder",
          "type": "address"
        },
        {
          "indexed": false,
          "internalType": "address",
          "name": "token",
          "type": "address"
        },
        {
          "indexed": false,
          "internalType": "uint256",
          "name": "price",
          "type": "uint256"
        },
        {
          "indexed": false,
          "internalType": "uint256",
          "name": "expiresAt",
          "type": "uint256"
        }
      ],
      "name": "BidCreated",
      "type": "event"
    },
    {
      "anonymous": false,
      "inputs": [
        {
          "indexed": false,
          "internalType": "address",
          "name": "collection",
          "type": "address"
        },
        {
          "indexed": false,
          "internalType": "uint256",
          "name": "assetId",
          "type": "uint256"
        },
        {
          "indexed": false,
          "internalType": "address",
          "name": "token",
          "type": "address"
        },
        {
          "indexed": false,
          "internalType": "address",
          "name": "bidder",
          "type": "address"
        },
        {
          "indexed": false,
          "internalType": "uint256",
          "name": "price",
          "type": "uint256"
        }
      ],
      "name": "BidSuccessful",
      "type": "event"
    },
    {
      "anonymous": false,
      "inputs": [
        {
          "indexed": false,
          "internalType": "address",
          "name": "seller",
          "type": "address"
        },
        {
          "indexed": false,
          "internalType": "address",
          "name": "collection",
          "type": "address"
        },
        {
          "indexed": false,
          "internalType": "uint256",
          "name": "assetId",
          "type": "uint256"
        },
        {
          "indexed": false,
          "internalType": "address",
          "name": "token",
          "type": "address"
        },
        {
          "indexed": false,
          "internalType": "uint256",
          "name": "price",
          "type": "uint256"
        }
      ],
      "name": "Listed",
      "type": "event"
    },
    {
      "anonymous": false,
      "inputs": [
        {
          "indexed": true,
          "internalType": "address",
          "name": "previousOwner",
          "type": "address"
        },
        {
          "indexed": true,
          "internalType": "address",
          "name": "newOwner",
          "type": "address"
        }
      ],
      "name": "OwnershipTransferred",
      "type": "event"
    },
    {
      "anonymous": false,
      "inputs": [
        {
          "indexed": false,
          "internalType": "address",
          "name": "buyer",
          "type": "address"
        },
        {
          "indexed": false,
          "internalType": "address",
          "name": "seller",
          "type": "address"
        },
        {
          "indexed": false,
          "internalType": "address",
          "name": "token",
          "type": "address"
        },
        {
          "indexed": false,
          "internalType": "uint256",
          "name": "assetId",
          "type": "uint256"
        },
        {
          "indexed": false,
          "internalType": "uint256",
          "name": "price",
          "type": "uint256"
        }
      ],
      "name": "Swapped",
      "type": "event"
    },
    {
      "inputs": [
        {
          "internalType": "address",
          "name": "",
          "type": "address"
        },
        {
          "internalType": "uint256",
          "name": "",
          "type": "uint256"
        },
        {
          "internalType": "address",
          "name": "",
          "type": "address"
        }
      ],
      "name": "bidforAuctions",
      "outputs": [
        {
          "internalType": "bytes32",
          "name": "id",
          "type": "bytes32"
        },
        {
          "internalType": "address",
          "name": "bidder",
          "type": "address"
        },
        {
          "internalType": "address",
          "name": "token",
          "type": "address"
        },
        {
          "internalType": "uint256",
          "name": "price",
          "type": "uint256"
        },
        {
          "internalType": "uint256",
          "name": "expiresAt",
          "type": "uint256"
        }
      ],
      "stateMutability": "view",
      "type": "function",
      "constant": true
    },
    {
      "inputs": [
        {
          "internalType": "address",
          "name": "",
          "type": "address"
        },
        {
          "internalType": "uint256",
          "name": "",
          "type": "uint256"
        }
      ],
      "name": "offers",
      "outputs": [
        {
          "internalType": "bytes32",
          "name": "id",
          "type": "bytes32"
        },
        {
          "internalType": "address",
          "name": "seller",
          "type": "address"
        },
        {
          "internalType": "address",
          "name": "collection",
          "type": "address"
        },
        {
          "internalType": "uint256",
          "name": "assetId",
          "type": "uint256"
        },
        {
          "internalType": "address",
          "name": "token",
          "type": "address"
        },
        {
          "internalType": "bool",
          "name": "isEther",
          "type": "bool"
        },
        {
          "internalType": "uint256",
          "name": "price",
          "type": "uint256"
        },
        {
          "internalType": "bool",
          "name": "isForSell",
          "type": "bool"
        },
        {
          "internalType": "bool",
          "name": "isForAuction",
          "type": "bool"
        },
        {
          "internalType": "uint256",
          "name": "expiresAt",
          "type": "uint256"
        }
      ],
      "stateMutability": "view",
      "type": "function",
      "constant": true
    },
    {
      "inputs": [],
      "name": "owner",
      "outputs": [
        {
          "internalType": "address",
          "name": "",
          "type": "address"
        }
      ],
      "stateMutability": "view",
      "type": "function",
      "constant": true
    },
    {
      "inputs": [],
      "name": "renounceOwnership",
      "outputs": [],
      "stateMutability": "nonpayable",
      "type": "function"
    },
    {
      "inputs": [
        {
          "internalType": "address",
          "name": "newOwner",
          "type": "address"
        }
      ],
      "name": "transferOwnership",
      "outputs": [],
      "stateMutability": "nonpayable",
      "type": "function"
    },
    {
      "inputs": [
        {
          "internalType": "address",
          "name": "_seller",
          "type": "address"
        },
        {
          "internalType": "address",
          "name": "_collection",
          "type": "address"
        },
        {
          "internalType": "uint256",
          "name": "_assetId",
          "type": "uint256"
        },
        {
          "internalType": "address",
          "name": "token",
          "type": "address"
        },
        {
          "internalType": "bool",
          "name": "isEther",
          "type": "bool"
        },
        {
          "internalType": "uint256",
          "name": "_price",
          "type": "uint256"
        },
        {
          "internalType": "bool",
          "name": "isForSell",
          "type": "bool"
        },
        {
          "internalType": "bool",
          "name": "isForAuction",
          "type": "bool"
        },
        {
          "internalType": "uint256",
          "name": "expiresAt",
          "type": "uint256"
        }
      ],
      "name": "addOffer",
      "outputs": [
        {
          "internalType": "bool",
          "name": "success",
          "type": "bool"
        }
      ],
      "stateMutability": "nonpayable",
      "type": "function"
    },
    {
      "inputs": [
        {
          "internalType": "address",
          "name": "collection",
          "type": "address"
        },
        {
          "internalType": "uint256",
          "name": "assetId",
          "type": "uint256"
        },
        {
          "internalType": "uint256",
          "name": "price",
          "type": "uint256"
        }
      ],
      "name": "setOfferPrice",
      "outputs": [
        {
          "internalType": "bool",
          "name": "",
          "type": "bool"
        }
      ],
      "stateMutability": "nonpayable",
      "type": "function"
    },
    {
      "inputs": [
        {
          "internalType": "address",
          "name": "collection",
          "type": "address"
        },
        {
          "internalType": "uint256",
          "name": "assetId",
          "type": "uint256"
        },
        {
          "internalType": "bool",
          "name": "isForSell",
          "type": "bool"
        }
      ],
      "name": "setForSell",
      "outputs": [
        {
          "internalType": "bool",
          "name": "",
          "type": "bool"
        }
      ],
      "stateMutability": "nonpayable",
      "type": "function"
    },
    {
      "inputs": [
        {
          "internalType": "address",
          "name": "collection",
          "type": "address"
        },
        {
          "internalType": "uint256",
          "name": "assetId",
          "type": "uint256"
        },
        {
          "internalType": "bool",
          "name": "isForAuction",
          "type": "bool"
        }
      ],
      "name": "setForAuction",
      "outputs": [
        {
          "internalType": "bool",
          "name": "",
          "type": "bool"
        }
      ],
      "stateMutability": "nonpayable",
      "type": "function"
    },
    {
      "inputs": [
        {
          "internalType": "address",
          "name": "collection",
          "type": "address"
        },
        {
          "internalType": "uint256",
          "name": "assetId",
          "type": "uint256"
        },
        {
          "internalType": "uint256",
          "name": "expiresAt",
          "type": "uint256"
        }
      ],
      "name": "setExpiresAt",
      "outputs": [
        {
          "internalType": "bool",
          "name": "",
          "type": "bool"
        }
      ],
      "stateMutability": "nonpayable",
      "type": "function"
    },
    {
      "inputs": [
        {
          "internalType": "address",
          "name": "collection",
          "type": "address"
        },
        {
          "internalType": "uint256",
          "name": "assetId",
          "type": "uint256"
        }
      ],
      "name": "buyOffer",
      "outputs": [
        {
          "internalType": "bool",
          "name": "success",
          "type": "bool"
        }
      ],
      "stateMutability": "payable",
      "type": "function",
      "payable": true
    },
    {
      "inputs": [
        {
          "internalType": "address",
          "name": "_collection",
          "type": "address"
        },
        {
          "internalType": "uint256",
          "name": "_assetId",
          "type": "uint256"
        },
        {
          "internalType": "address",
          "name": "_token",
          "type": "address"
        },
        {
          "internalType": "uint256",
          "name": "_price",
          "type": "uint256"
        },
        {
          "internalType": "uint256",
          "name": "_expiresAt",
          "type": "uint256"
        }
      ],
      "name": "safePlaceBid",
      "outputs": [],
      "stateMutability": "nonpayable",
      "type": "function"
    },
    {
      "inputs": [
        {
          "internalType": "address",
          "name": "_collection",
          "type": "address"
        },
        {
          "internalType": "uint256",
          "name": "_assetId",
          "type": "uint256"
        },
        {
          "internalType": "address",
          "name": "_bidder",
          "type": "address"
        }
      ],
      "name": "cancelBid",
      "outputs": [
        {
          "internalType": "bool",
          "name": "",
          "type": "bool"
        }
      ],
      "stateMutability": "nonpayable",
      "type": "function"
    },
    {
      "inputs": [
        {
          "internalType": "address",
          "name": "_collection",
          "type": "address"
        },
        {
          "internalType": "uint256",
          "name": "_assetId",
          "type": "uint256"
        },
        {
          "internalType": "address",
          "name": "_bidder",
          "type": "address"
        }
      ],
      "name": "acceptBid",
      "outputs": [],
      "stateMutability": "nonpayable",
      "type": "function"
    },
    {
      "inputs": [
        {
          "internalType": "address",
          "name": "",
          "type": "address"
        },
        {
          "internalType": "address",
          "name": "",
          "type": "address"
        },
        {
          "internalType": "uint256",
          "name": "",
          "type": "uint256"
        },
        {
          "internalType": "bytes",
          "name": "",
          "type": "bytes"
        }
      ],
      "name": "onERC721Received",
      "outputs": [
        {
          "internalType": "bytes4",
          "name": "",
          "type": "bytes4"
        }
      ],
      "stateMutability": "nonpayable",
      "type": "function"
    }
  ],
  "bytecode": "0x608060405234801561001057600080fd5b50600061001b61006a565b600080546001600160a01b0319166001600160a01b0383169081178255604051929350917f8be0079c531659141344cd1fd0a4f28419497f9722a3daafe3b4186f6b6457e0908290a35061006e565b3390565b61212c8061007d6000396000f3fe6080604052600436106100e85760003560e01c80638c89b0721161008a578063acce3df811610059578063acce3df814610272578063df619da9146102a3578063e5a73c6c146102c3578063f2fde38b146102e3576100e8565b80638c89b072146101da5780638da5cb5b146101fa578063a58026201461021c578063aa1a84111461023c576100e8565b80635c052ea3116100c65780635c052ea314610172578063651a709214610192578063715018a6146101b25780637736f1be146101c7576100e8565b8063150b7a02146100ed5780633ed79ff614610123578063434159cf14610150575b600080fd5b3480156100f957600080fd5b5061010d6101083660046117d1565b610303565b60405161011a9190611c11565b60405180910390f35b34801561012f57600080fd5b5061014361013e366004611994565b610313565b60405161011a9190611b51565b34801561015c57600080fd5b5061017061016b36600461190d565b610331565b005b34801561017e57600080fd5b5061014361018d3660046118cc565b610345565b34801561019e57600080fd5b506101436101ad366004611994565b61054e565b3480156101be57600080fd5b5061017061056c565b6101436101d53660046118a1565b6105f5565b3480156101e657600080fd5b506101436101f536600461195e565b6106c0565b34801561020657600080fd5b5061020f6106ea565b60405161011a9190611a65565b34801561022857600080fd5b506101706102373660046118cc565b6106f9565b34801561024857600080fd5b5061025c6102573660046118a1565b610ada565b60405161011a9a99989796959493929190611b65565b34801561027e57600080fd5b5061029261028d3660046118cc565b610b4a565b60405161011a959493929190611bbe565b3480156102af57600080fd5b506101436102be366004611731565b610b94565b3480156102cf57600080fd5b506101436102de36600461195e565b611010565b3480156102ef57600080fd5b506101706102fe3660046116f9565b61103f565b630a85bd0160e11b949350505050565b60008061032085856110ff565b600501929092555060019392505050565b61033e8585858585611161565b5050505050565b60008061035185611509565b905061035b6115af565b6001600160a01b0316836001600160a01b0316148061040d57506040516331a9108f60e11b81526001600160a01b03821690636352211e906103a1908790600401611b5c565b60206040518083038186803b1580156103b957600080fd5b505afa1580156103cd573d6000803e3d6000fd5b505050506040513d601f19601f820116820180604052508101906103f19190611715565b6001600160a01b03166104026115af565b6001600160a01b0316145b6104325760405162461bcd60e51b815260040161042990611dd2565b60405180910390fd5b6001600160a01b038516600090815260026020908152604080832087845290915281208161045e6115af565b6001600160a01b03908116825260208083019390935260409182016000908120835160a08101855281548152600180830154851682880152600280840154861683880152600380850154606085015260049485015460808501528e871686528189528786208e87528952878620968d1686529590975285842084815590810180546001600160a01b031990811690915596810180549097169096559285018290559390930192909255815190519192507fb56dc4096011ba5fd2e46e5c3e7b04dec423b5e7b5fce9a17a419d77c832177c9161053a9190611b5c565b60405180910390a150600195945050505050565b60008061055b85856110ff565b600701929092555060019392505050565b6105746115af565b6001600160a01b03166105856106ea565b6001600160a01b0316146105ab5760405162461bcd60e51b815260040161042990611f99565b600080546040516001600160a01b03909116907f8be0079c531659141344cd1fd0a4f28419497f9722a3daafe3b4186f6b6457e0908390a3600080546001600160a01b0319169055565b6001600160a01b03821660009081526001602090815260408083208484529091528120346106355760405162461bcd60e51b81526004016104299061203c565b600681015460ff166106595760405162461bcd60e51b815260040161042990611e15565b61066381856115b3565b7f6782190c91d4a7e8ad2a867deed6ec0a970cab8ff137ae2bd4abd92b3810f4d361068c6115af565b60018301546040516106ae92916001600160a01b031690889088903490611a93565b60405180910390a15060019392505050565b6000806106cd85856110ff565b600601805484151560ff1990911617905550600190509392505050565b6000546001600160a01b031690565b6001600160a01b038381166000908152600160208181526040808420878552825292839020835161014081018552815481529281015485169183019190915260028101548416928201929092526003820154606082015260048201549283166080820152600160a01b90920460ff908116151560a0840152600582015460c08401526006820154808216151560e085015261010090819004909116151590830152600701546101208201526107ac6115af565b6001600160a01b031681602001516001600160a01b0316146107e05760405162461bcd60e51b815260040161042990611e41565b8061010001516108025760405162461bcd60e51b815260040161042990611f0e565b6001600160a01b03808516600090815260026020818152604080842088855282528084208786168552825292839020835160a081018552815481526001820154861692810192909252918201549093169183019190915260038101546060830152600401546080820181905242101561088d5760405162461bcd60e51b815260040161042990611ed7565b6001600160a01b038086166000908152600260208181526040808420898552825280842094881684529390528282208281556001810180546001600160a01b031990811690915591810180549092169091556003810182905560040155815190517ff8c7d5572fa269efc040934ae7553d57f8906bffd616254bef0b94e2b569e4169161091991611b5c565b60405180910390a180604001516001600160a01b03166323b872dd82602001516109416115af565b84606001516040518463ffffffff1660e01b815260040161096493929190611ac7565b602060405180830381600087803b15801561097e57600080fd5b505af1158015610992573d6000803e3d6000fd5b505050506040513d601f19601f820116820180604052508101906109b691906119c8565b506001600160a01b0385166000818152600160208181526040808420898552825280842084815592830180546001600160a01b0319908116909155600284018054909116905560038301849055600480840180546001600160a81b03191690556005840185905560068401805461ffff191690556007909301939093558401519151632142170760e11b81526342842e0e92610a569230928a9101611ac7565b600060405180830381600087803b158015610a7057600080fd5b505af1158015610a84573d6000803e3d6000fd5b505050507fd547bcd31dc44a5a273df9cc0e2182baa4d0a3b6d6838e69322914dc260886318585836040015184602001518560600151604051610acb959493929190611b1e565b60405180910390a15050505050565b60016020818152600093845260408085209091529183529120805491810154600282015460038301546004840154600585015460068601546007909601546001600160a01b03958616969486169593949383169360ff600160a01b9094048416938181169261010090920416908a565b60026020818152600094855260408086208252938552838520905290835291208054600182015492820154600383015460049093015491936001600160a01b039081169391169185565b600080610ba08a611509565b905060008611610bc25760405162461bcd60e51b815260040161042990611ca3565b8315158515151415610be65760405162461bcd60e51b815260040161042990612066565b610bee6115af565b6001600160a01b0316816001600160a01b0316636352211e8b6040518263ffffffff1660e01b8152600401610c239190611b5c565b60206040518083038186803b158015610c3b57600080fd5b505afa158015610c4f573d6000803e3d6000fd5b505050506040513d601f19601f82011682018060405250810190610c739190611715565b6001600160a01b031614610c995760405162461bcd60e51b815260040161042990612005565b610ca16115af565b6001600160a01b03168b6001600160a01b031614610cd15760405162461bcd60e51b815260040161042990611c6c565b806001600160a01b031663e985e9c5610ce86115af565b306040518363ffffffff1660e01b8152600401610d06929190611a79565b60206040518083038186803b158015610d1e57600080fd5b505afa158015610d32573d6000803e3d6000fd5b505050506040513d601f19601f82011682018060405250810190610d5691906119c8565b610d725760405162461bcd60e51b815260040161042990611d4e565b600042610d7d6115af565b8c8c87604051602001610d949594939291906119ff565b6040516020818303038152906040528051906020012090506040518061014001604052808281526020018d6001600160a01b031681526020018c6001600160a01b031681526020018b81526020018a6001600160a01b0316815260200189151581526020018881526020018715158152602001861515815260200185815250600160008d6001600160a01b03166001600160a01b0316815260200190815260200160002060008c81526020019081526020016000206000820151816000015560208201518160010160006101000a8154816001600160a01b0302191690836001600160a01b0316021790555060408201518160020160006101000a8154816001600160a01b0302191690836001600160a01b031602179055506060820151816003015560808201518160040160006101000a8154816001600160a01b0302191690836001600160a01b0316021790555060a08201518160040160146101000a81548160ff02191690831515021790555060c0820151816005015560e08201518160060160006101000a81548160ff0219169083151502179055506101008201518160060160016101000a81548160ff0219169083151502179055506101208201518160070155905050816001600160a01b03166342842e0e8d308d6040518463ffffffff1660e01b8152600401610f8d93929190611ac7565b600060405180830381600087803b158015610fa757600080fd5b505af1158015610fbb573d6000803e3d6000fd5b505050507f9d133375c43796e4b98269466fc0e5dfed7e902390be3b5f30c70a391f0439e18c8c8c8c8b604051610ff6959493929190611aeb565b60405180910390a15060019b9a5050505050505050505050565b60008061101d85856110ff565b60060180548415156101000261ff001990911617905550600190509392505050565b6110476115af565b6001600160a01b03166110586106ea565b6001600160a01b03161461107e5760405162461bcd60e51b815260040161042990611f99565b6001600160a01b0381166110a45760405162461bcd60e51b815260040161042990611cda565b600080546040516001600160a01b03808516939216917f8be0079c531659141344cd1fd0a4f28419497f9722a3daafe3b4186f6b6457e091a3600080546001600160a01b0319166001600160a01b0392909216919091179055565b6001600160a01b03808316600090815260016020818152604080842086855290915282209081015491929091166111346115af565b6001600160a01b03161461115a5760405162461bcd60e51b815260040161042990611fce565b9392505050565b6001600160a01b038581166000908152600160208181526040808420898552825292839020835161014081018552815481529281015485169183019190915260028101548416928201929092526003820154606082015260048201549283166080820152600160a01b90920460ff908116151560a0840152600582015460c08401526006820154808216151560e08501526101009081900490911615159083015260070154610120820181905282111561121e5780610120015191505b6001600160a01b038616600090815260026020908152604080832088845290915281208161124a6115af565b6001600160a01b0390811682526020808301939093526040918201600020825160a081018452815480825260018301548416958201959095526002820154909216928201929092526003820154606082015260049091015460808201529150156112c65760405162461bcd60e51b815260040161042990611eab565b8161010001516112e85760405162461bcd60e51b815260040161042990611c26565b83856001600160a01b031663dd62ed3e6113006115af565b306040518363ffffffff1660e01b815260040161131e929190611a79565b60206040518083038186803b15801561133657600080fd5b505afa15801561134a573d6000803e3d6000fd5b505050506040513d601f19601f8201168201806040525081019061136e91906119e4565b101561138c5760405162461bcd60e51b815260040161042990611e76565b6000423386866040516020016113a59493929190611a38565b6040516020818303038152906040528051906020012090506040518060a001604052808281526020016113d66115af565b6001600160a01b03168152602001876001600160a01b0316815260200186815260200185815250600260008a6001600160a01b03166001600160a01b031681526020019081526020016000206000898152602001908152602001600020600061143d6115af565b6001600160a01b039081168252602080830193909352604091820160002084518155928401516001840180546001600160a01b0319908116928416929092179055918401516002840180549093169116179055606082015160038201556080909101516004909101556114ae6115af565b6001600160a01b031687896001600160a01b03167f5d1eb124eb9473cb0f2843e4267daee5ec37d2b8cce8952d025f7465b73351be848a8a8a6040516114f79493929190611bed565b60405180910390a45050505050505050565b6040516301ffc9a760e01b81526000906001600160a01b038316906301ffc9a79061153f906380ac58cd60e01b90600401611c11565b60206040518083038186803b15801561155757600080fd5b505afa15801561156b573d6000803e3d6000fd5b505050506040513d601f19601f8201168201806040525081019061158f91906119c8565b6115ab5760405162461bcd60e51b815260040161042990611d7d565b5090565b3390565b60006115be82611509565b600184015460048501549192506001600160a01b031690600160a01b900460ff16156116865734846005015411156116085760405162461bcd60e51b815260040161042990611f4f565b6000816001600160a01b031634604051611621906119fc565b60006040518083038185875af1925050503d806000811461165e576040519150601f19603f3d011682016040523d82523d6000602084013e611663565b606091505b50509050806116845760405162461bcd60e51b815260040161042990611d20565b505b816001600160a01b03166323b872dd3061169e6115af565b87600301546040518463ffffffff1660e01b81526004016116c193929190611ac7565b600060405180830381600087803b1580156116db57600080fd5b505af11580156116ef573d6000803e3d6000fd5b5050505050505050565b60006020828403121561170a578081fd5b813561115a816120d0565b600060208284031215611726578081fd5b815161115a816120d0565b60008060008060008060008060006101208a8c03121561174f578485fd5b893561175a816120d0565b985060208a013561176a816120d0565b975060408a0135965060608a0135611781816120d0565b955060808a0135611791816120e8565b945060a08a0135935060c08a01356117a8816120e8565b925060e08a01356117b8816120e8565b809250506101008a013590509295985092959850929598565b600080600080608085870312156117e6578384fd5b84356117f1816120d0565b9350602085810135611802816120d0565b935060408601359250606086013567ffffffffffffffff80821115611825578384fd5b818801915088601f830112611838578384fd5b81358181111561184a5761184a6120ba565b604051601f8201601f191681018501838111828210171561186d5761186d6120ba565b60405281815283820185018b1015611883578586fd5b81858501868301379081019093019390935250939692955090935050565b600080604083850312156118b3578182fd5b82356118be816120d0565b946020939093013593505050565b6000806000606084860312156118e0578283fd5b83356118eb816120d0565b9250602084013591506040840135611902816120d0565b809150509250925092565b600080600080600060a08688031215611924578081fd5b853561192f816120d0565b9450602086013593506040860135611946816120d0565b94979396509394606081013594506080013592915050565b600080600060608486031215611972578283fd5b833561197d816120d0565b9250602084013591506040840135611902816120e8565b6000806000606084860312156119a8578283fd5b83356119b3816120d0565b95602085013595506040909401359392505050565b6000602082840312156119d9578081fd5b815161115a816120e8565b6000602082840312156119f5578081fd5b5051919050565b90565b9485526bffffffffffffffffffffffff19606094851b811660208701529290931b90911660348401526048830152606882015260880190565b93845260609290921b6bffffffffffffffffffffffff191660208401526034830152605482015260740190565b6001600160a01b0391909116815260200190565b6001600160a01b0392831681529116602082015260400190565b6001600160a01b03958616815293851660208501529190931660408301526060820192909252608081019190915260a00190565b6001600160a01b039384168152919092166020820152604081019190915260600190565b6001600160a01b039586168152938516602085015260408401929092529092166060820152608081019190915260a00190565b6001600160a01b039586168152602081019490945291841660408401529092166060820152608081019190915260a00190565b901515815260200190565b90815260200190565b998a526001600160a01b0398891660208b015296881660408a01526060890195909552929095166080870152151560a086015260c085019390935291151560e08401529015156101008301526101208201526101400190565b9485526001600160a01b0393841660208601529190921660408401526060830191909152608082015260a00190565b9384526001600160a01b039290921660208401526040830152606082015260800190565b6001600160e01b031991909116815260200190565b60208082526026908201527f4e4654204d61726b6574706c6163653a204e465420746f6b656e206e6f7420696040820152651b881cd95b1b60d21b606082015260800190565b6020808252601d908201527f53656c6c65722073686f756c6420626520657175616c73206f776e6572000000604082015260600190565b6020808252601f908201527f5072696365206d7573742062652067726561746572207468616e207a65726f00604082015260600190565b60208082526026908201527f4f776e61626c653a206e6577206f776e657220697320746865207a65726f206160408201526564647265737360d01b606082015260800190565b6020808252601490820152732330b4b632b2103a379039b2b7321022ba3432b960611b604082015260600190565b60208082526015908201527410dbdb9d1c9858dd081b9bdd08185c1c1c9bdd9959605a1b604082015260600190565b60208082526035908201527f546865204e465420636f6e74726163742068617320616e20696e76616c69642060408201527422a9219b99189034b6b83632b6b2b73a30ba34b7b760591b606082015260800190565b60208082526023908201527f4d61726b6574706c6163653a20556e617574686f72697a6564206f706572617460408201526234b7b760e91b606082015260800190565b60208082526012908201527113d999995c881b9bdd08199bdc881cd95b1b60721b604082015260600190565b6020808252818101527f4d61726b6574706c6163653a20756e617574686f72697a65642073656e646572604082015260600190565b6020808252818101527f4e4654204d61726b6574706c6163653a20416c6c6f77616e6365206572726f72604082015260600190565b60208082526012908201527162696420616c72656164792065786973747360701b604082015260600190565b6020808252601c908201527f4d61726b6574706c6163653a2074686520626964206578706972656400000000604082015260600190565b60208082526021908201527f4d61726b6574706c6163653a206f66666572206e6f7420696e2061756374696f6040820152603760f91b606082015260800190565b6020808252602a908201527f70726963652073686f756c6420657175616c206f7220757070657220746f206f6040820152696666657220707269636560b01b606082015260800190565b6020808252818101527f4f776e61626c653a2063616c6c6572206973206e6f7420746865206f776e6572604082015260600190565b6020808252601a908201527f4d61726b6574706c6163653a20696e76616c6964206f776e6572000000000000604082015260600190565b6020808252601c908201527f5472616e736665722063616c6c6572206973206e6f74206f776e657200000000604082015260600190565b60208082526010908201526f07072696365206d757374206265203e360841b604082015260600190565b60208082526034908201527f546f6b656e2063616e277420626520666f722073656c6c20616e642061756374604082015273696f6e20696e207468652073616d652074696d6560601b606082015260800190565b634e487b7160e01b600052604160045260246000fd5b6001600160a01b03811681146120e557600080fd5b50565b80151581146120e557600080fdfea2646970667358221220d6b1eddd3e2e649e8feaac61e5e20b0467db6716b123a9eb085ce91af72dec7c64736f6c63430008000033",
  "immutableReferences": {},
  "source": "pragma solidity >=0.4.22 <0.9.0;\n\nimport \"./IERC20.sol\";\nimport \"./Ownable.sol\";\nimport \"./ERC721Validator.sol\";\nimport \"./IWoomExchange.sol\";\nimport \"./IERC721Receiver.sol\";\ncontract WoomExchange is Ownable, ERC721Validator, IWoomExchange{\n    mapping(address=> mapping(uint  => Offer)) public offers;\n    // For auctions bid by bider, collection and assetId\n    mapping(address => mapping( uint256 => mapping(address => Bid))) public bidforAuctions;\n    function addOffer(\n        address _seller,\n        address _collection,\n        uint256 _assetId,\n        address token,\n        bool isEther,\n        uint256 _price,\n        bool isForSell,\n        bool isForAuction,\n        uint256 expiresAt\n        )\n       public returns (bool success) {\n        // get NFT asset from seller\n        IERC721 nftCollection = _requireERC721(_collection);\n        require(_price > 0, \"Price must be greater than zero\");\n        require(isForSell != isForAuction,\"Token can't be for sell and auction in the same time\");\n        require(nftCollection.ownerOf(_assetId) == _msgSender(), \"Transfer caller is not owner\");\n        require(_seller == _msgSender(), \"Seller should be equals owner\");\n        require(nftCollection.isApprovedForAll(_msgSender(), address(this)), \"Contract not approved\");\n        // Create bid\n      bytes32 OfferId =\n        keccak256(\n          abi.encodePacked(\n            block.timestamp,\n            _msgSender(),\n            _collection,\n            _assetId,\n            expiresAt\n          )\n        );\n        offers[_collection][_assetId] = Offer(\n            OfferId,\n            _seller,\n            _collection,\n            _assetId,\n            token,\n            isEther,\n            _price,\n            isForSell,\n            isForAuction,\n            expiresAt\n        );\n        nftCollection.safeTransferFrom(_seller, address(this), _assetId);\n        emit Listed(_seller,_collection, _assetId, token, _price);\n        return true;\n    }\n    function setOfferPrice(address collection, uint256 assetId, uint price ) public  returns(bool){\n        Offer storage offer = _getOwnerOffer(collection, assetId);\n        offer.price = price;\n        return true;\n    }\n    function setForSell(address collection, uint256 assetId, bool isForSell) public  returns(bool){\n        Offer storage offer = _getOwnerOffer(collection, assetId);\n        offer.isForSell = isForSell;\n        return true;\n    }\n    function setForAuction(address collection, uint256 assetId, bool isForAuction)public returns(bool){\n        Offer storage offer = _getOwnerOffer(collection, assetId);\n        offer.isForAuction = isForAuction;\n        return true;\n    }\n    function setExpiresAt(address collection, uint256 assetId, uint256 expiresAt)public returns(bool){\n        Offer storage offer = _getOwnerOffer(collection, assetId);\n        offer.expiresAt = expiresAt;\n        return true;\n    }\n    function _getOwnerOffer(address collection, uint256 assetId)internal view returns (Offer storage){\n        Offer storage offer = offers[collection][assetId];\n        require(_msgSender() == offer.seller, \"Marketplace: invalid owner\");\n        return offer;\n    }\n    function buyOffer(address collection, uint256 assetId) public payable returns (bool success) {\n        Offer storage offer = offers[collection][assetId];\n        require(msg.value > 0, \"price must be >0\");\n        require(offer.isForSell, \"Offer not for sell\");\n        _buyOffer(offer, collection);\n        emit Swapped(_msgSender(), offer.seller, collection, assetId, msg.value);\n        return true;\n    }\n    function _buyOffer(Offer storage offer, address collection) internal{\n        IERC721 nftCollection = _requireERC721(collection);\n        address _to = offer.seller;\n        if(offer.isEther){\n            require(offer.price <= msg.value, \"price should equal or upper to offer price\");\n            (bool sent, ) = _to.call{value: msg.value}(\"\");\n            require(sent, \"Failed to send Ether\");\n        }\n        nftCollection.transferFrom(address(this), _msgSender(), offer.assetId);\n    }\n\n  function safePlaceBid(\n    address _collection,\n    uint256 _assetId,\n    address _token,\n    uint256 _price,\n    uint256 _expiresAt\n  ) public {\n    _createBid(_collection, _assetId, _token, _price, _expiresAt);\n  }\n\n  function _createBid(\n    address _collection,\n    uint256 _assetId,\n    address _token,\n    uint256 _price,\n    uint256 _expiresAt\n  ) internal {\n    // Checks order validity\n    Offer memory offer = offers[_collection][_assetId];\n    // check on expire time\n    if ( _expiresAt > offer.expiresAt ) {\n      _expiresAt = offer.expiresAt;\n    }\n    // Check price if theres previous a bid\n    Bid memory bid = bidforAuctions[_collection][_assetId][_msgSender()];\n    require(bid.id == 0 , \"bid already exists\");\n    require(offer.isForAuction,\"NFT Marketplace: NFT token not in sell\");\n    require( IERC20(_token).allowance(_msgSender(), address(this)) >= _price , \"NFT Marketplace: Allowance error\");\n    // Create bid\n    bytes32 bidId =\n      keccak256(\n        abi.encodePacked(\n          block.timestamp,\n          msg.sender,\n          _price,\n          _expiresAt\n        )\n      );\n\n    // Save Bid for this order\n    bidforAuctions[_collection][_assetId][_msgSender()] = Bid({\n      id: bidId,\n      bidder: _msgSender(),\n      token: _token,\n      price: _price,\n      expiresAt: _expiresAt\n    });\n\n    emit BidCreated(\n       bidId,\n      _collection,\n      _assetId,\n      _msgSender(), // bidder\n      _token,\n      _price,\n      _expiresAt\n    );\n  }\n function cancelBid(\n    address _collection,\n    uint256 _assetId,\n    address _bidder\n  ) external returns(bool) {\n    IERC721 nftCollection = _requireERC721(_collection);\n    require(_bidder == _msgSender() || _msgSender() == nftCollection.ownerOf(_assetId), \"Marketplace: Unauthorized operation\");\n    Bid memory bid = bidforAuctions[_collection][_assetId][_msgSender()];\n    delete bidforAuctions[_collection][_assetId][_bidder];\n    emit BidCancelled(bid.id);\n    return true;\n  }\n  \n  function acceptBid(\n    address _collection,\n    uint256 _assetId,\n    address _bidder\n  ) public {\n    //get offer\n    Offer memory offer = offers[_collection][_assetId];\n\n    // check seller\n    require(offer.seller == _msgSender(), \"Marketplace: unauthorized sender\");\n    require(offer.isForAuction, \"Marketplace: offer not in auction\");\n\n    // get bid to accept\n    Bid memory bid = bidforAuctions[_collection][_assetId][_bidder];\n\n    require(bid.expiresAt <= block.timestamp, \"Marketplace: the bid expired\");\n    \n    delete bidforAuctions[_collection][_assetId][_bidder];\n    emit BidAccepted(bid.id);\n    // transfer escrowed bid amount minus market fee to seller\n    IERC20(bid.token).transferFrom(bid.bidder ,_msgSender(), bid.price);\n\n    delete offers[_collection][_assetId];\n    // Transfer NFT asset\n    IERC721(_collection).safeTransferFrom(address(this), bid.bidder, _assetId);\n    // Notify ..\n    emit BidSuccessful(_collection, _assetId, bid.token, bid.bidder, bid.price);\n  }\n  function onERC721Received(address, address, uint256, bytes memory) public virtual  returns (bytes4) {\n        return this.onERC721Received.selector;\n    }\n\n}",
  "sourcePath": "/Users/mac/Desktop/blockchain-projects/bestvictor/wom-nft-marketplace/NFT-Smart-Contract/woom-exchange/contracts/WoomExchange.sol",
  "compiler": {
    "name": "solc",
    "version": "0.8.0+commit.c7dfd78e.Emscripten.clang"
  },
  "schemaVersion": "3.4.0",
  "updatedAt": "2021-05-14T08:15:36.877Z",
  "networkType": "ethereum",
  "devdoc": {
    "kind": "dev",
    "methods": {
      "owner()": {
        "details": "Returns the address of the current owner."
      },
      "renounceOwnership()": {
        "details": "Leaves the contract without owner. It will not be possible to call `onlyOwner` functions anymore. Can only be called by the current owner. NOTE: Renouncing ownership will leave the contract without an owner, thereby removing any functionality that is only available to the owner."
      },
      "transferOwnership(address)": {
        "details": "Transfers ownership of the contract to a new account (`newOwner`). Can only be called by the current owner."
      }
    },
    "version": 1
  },
  "userdoc": {
    "kind": "user",
    "methods": {},
    "version": 1
  }
}